:020000040000fa
:080000000013040000000000e1
:020000040000fa
:1000080002100000061000000a1000000e10000088
:1000180012100000161000001a1000001e10000038
:1000280022100000261000002a1000002e100000e8
:1000380032100000361000003a1000003e10000098
:1000480042100000461000004a1000004e10000048
:1000580052100000561000005a1000005e100000f8
:1000680062100000661000006a1000006e100000a8
:1000780072100000761000007a1000007e10000058
:1000880082100000861000008a1000008e10000008
:1000980092100000961000009a1000009e100000b8
:1000a800a2100000a6100000aa100000ae10000068
:1000b800b2100000b6100000ba100000be10000018
:1000c800c2100000c6100000ca100000ce100000c8
:1000d800d2100000d6100000da100000de10000078
:1000e800e2100000e6100000ea100000ee10000028
:1000f800f2100000f6100000fa100000fe100000d8
:1001080002110000061100000a1100000e11000083
:1001180012110000161100001a1100001e11000033
:1001280022110000261100002a1100002e110000e3
:1001380032110000361100003a1100003e11000093
:1001480042110000461100004a1100004e11000043
:1001580052110000561100005a1100005e110000f3
:1001680062110000661100006a1100006e110000a3
:1001780072110000761100007a1100007e11000053
:1001880082110000861100008a1100008e11000003
:1001980092110000961100009a1100009e110000b3
:1001a800a2110000a6110000aa110000ae11000063
:1001b800b2110000b6110000ba110000be11000013
:1001c800c2110000c6110000ca110000ce110000c3
:1001d800d2110000d6110000da110000de11000073
:1001e800e2110000e6110000ea110000ee11000023
:1001f800f2110000f6110000fa110000fe110000d3
:1002080002120000061200000a1200000e1200007e
:1002180012120000161200001a1200001e1200002e
:1002280022120000261200002a1200002e120000de
:1002380032120000361200003a1200003e1200008e
:1002480042120000461200004a1200004e1200003e
:1002580052120000561200005a1200005e120000ee
:1002680062120000661200006a1200006e1200009e
:0c02780072120000761200007a120000e2
:020000040000fa
:1020000002000000fa13040000000000fa130400ac
:1020100000000000fa13040000000000fa1304009e
:1020200000000000fa13040000000000fa1304008e
:1020300000000000fa13040000000000fa1304007e
:1020400000000000fa13040000000000fa1304006e
:1020500000000000fa13040000000000fa1304005e
:1020600000000000fa13040000000000fa1304004e
:1020700000000000fa13040000000000fa1304003e
:1020800000000000fa13040000000000fa1304002e
:1020900000000000fa13040000000000fa1304001e
:1020a00000000000fa13040000000000fa1304000e
:1020b00000000000fa13040000000000fa130400fe
:1020c00000000000fa13040000000000fa130400ee
:1020d00000000000fa13040000000000fa130400de
:1020e00000000000fa13040000000000fa130400ce
:1020f00000000000fa13040000000000fa130400be
:1021000000000000fa13040000000000fa130400ad
:1021100000000000fa13040000000000fa1304009d
:1021200000000000fa13040000000000fa1304008d
:1021300000000000fa13040000000000fa1304007d
:1021400000000000fa13040000000000fa1304006d
:1021500000000000fa13040000000000fa1304005d
:1021600000000000fa13040000000000fa1304004d
:1021700000000000fa13040000000000fa1304003d
:1021800000000000fa13040000000000fa1304002d
:1021900000000000fa13040000000000fa1304001d
:1021a00000000000fa13040000000000fa1304000d
:1021b00000000000fa13040000000000fa130400fd
:1021c00000000000fa13040000000000fa130400ed
:1021d00000000000fa13040000000000fa130400dd
:1021e00000000000fa13040000000000fa130400cd
:1021f00000000000fa13040000000000fa130400bd
:1022000000000000fa13040000000000fa130400ac
:1022100000000000fa13040000000000fa1304009c
:1022200000000000fa13040000000000fa1304008c
:1022300000000000fa13040000000000fa1304007c
:1022400000000000fa13040000000000fa1304006c
:1022500000000000fa13040000000000fa1304005c
:1022600000000000fa13040000000000fa1304004c
:1022700000000000fa13040000000000fa1304003c
:1022800000000000fa13040000000000fa1304002c
:1022900000000000fa13040000000000fa1304001c
:1022a00000000000fa13040000000000fa1304000c
:1022b00000000000fa13040000000000fa130400fc
:1022c00000000000fa13040000000000fa130400ec
:1022d00000000000fa13040000000000fa130400dc
:1022e00000000000fa13040000000000fa130400cc
:1022f00000000000fa13040000000000fa130400bc
:1023000000000000fa13040000000000fa130400ab
:1023100000000000fa13040000000000fa1304009b
:1023200000000000fa13040000000000fa1304008b
:1023300000000000fa13040000000000fa1304007b
:1023400000000000fa13040000000000fa1304006b
:1023500000000000fa13040000000000fa1304005b
:1023600000000000fa13040000000000fa1304004b
:1023700000000000fa13040000000000fa1304003b
:1023800000000000fa13040000000000fa1304002b
:1023900000000000fa13040000000000fa1304001b
:1023a00000000000fa13040000000000fa1304000b
:1023b00000000000fa13040000000000fa130400fb
:1023c00000000000fa13040000000000fa130400eb
:1023d00000000000fa13040000000000fa130400db
:1023e00000000000fa13040000000000fa130400cb
:1023f00000000000fa13040000000000fa130400bb
:1024000000000000fa13040000000000fa130400aa
:1024100000000000fa13040000000000fa1304009a
:1024200000000000fa13040000000000fa1304008a
:1024300000000000fa13040000000000fa1304007a
:1024400000000000fa13040000000000fa1304006a
:1024500000000000fa13040000000000fa1304005a
:1024600000000000fa13040000000000fa1304004a
:1024700000000000fa13040000000000fa1304003a
:1024800000000000fa13040000000000fa1304002a
:1024900000000000fa13040000000000fa1304001a
:1024a00000000000fa13040000000000fa1304000a
:1024b00000000000fa13040000000000fa130400fa
:1024c00000000000fa13040000000000fa130400ea
:1024d00000000000fa13040000000000fa130400da
:1024e00000000000fa13040000000000fa130400ca
:0c24f00000000000fa13040000000000cf
:020000040000fa
:102600006f2a21000eff24000e0188000000000048
:10261000000020000000e000020032000001200065
:102620002002880014000700f00007000000e0000e
:1026300003003a0000792500010020000200370065
:102640000000200001002000810f70000100320016
:102650000f000700000020000000e0000200320030
:1026600000000200000000004c3f020000000000db
:102670000040da000000fe00a0db20000000e000c7
:1026800002003200002020009001880000000600b7
:10269000a1028800800478000000eb001f003700d2
:1026a000e284440054a0b4009905ba00e2844400d6
:1026b00054a0b4009906ba00e284440054a0b400c7
:1026c0000006eb00476fde00fd07b200ae01880098
:1026d000636ce10003003a000ad801000000eb003f
:1026e0000e003700606ce10008003a00004deb007e
:1026f0000a05e800020039003420ec000af0a000ce
:102700008b05e900f9ff3e00040037006168e10035
:10271000010032000086eb000b00070019c7ba0069
:102720000e04e0001905ba0003003a000a00e000b8
:10273000dbff3a0000000600fe07b200ae02880090
:102740008a047800f5ff37000cd0a300e20f4d009b
:102750001c00390089027800354dba000a05e800ee
:10276000020039003420ec000af0a0008b05e900db
:102770000f003200254dba000a05e80002003900ba
:102780003420ec000af0a0008b05e90008003200bc
:102790000c00e0000600320015cdba000a05e80082
:1027a000020039003420ec000af0a0008b05e9009b
:1027b0008984e80054a0b4000b00e000e2ff3a0076
:1027c000000006009902ba00055d78008b05e9005b
:1027d000f7ff3200c82ade00055d78008b05e900ae
:1027e000f3ff32000c00e000f1ff320019ddba0007
:1027f000eeff37003600f800809fbe00829fbe00cb
:10280000849fbe00869fbe003200f8003400f800ae
:1028100010002000a0018800002020009001880006
:10282000000000000000fa00000121004146800085
:1028300001087800a0112a00e41707000080fa00c0
:102840003400f9003200f9004f03be004f02be0011
:102850004f01be004f00be003600f90000400600e8
:102860000a00fa00e20f500034003e00109580008c
:10287000e10f500003003200e20f500011003a0057
:102880000c003700032220000300e00001003a00a2
:102890000040da002002e200020035002822ef00aa
:1028a00021e2a8002342ab000d003a002342a80019
:1028b0000b003700032320000300e00001003a0072
:1028c0000040da003002e200020035003822ef005a
:1028d00031e2a8003342ab0001003a003342a800c5
:1028e000820178000b0037003102fb00e10f50003d
:1028f00004003a002322ab00feff3a0024118800b6
:10290000030037003322ab00feff3a00a411880019
:102910008301e9000300e000f3ff3a00e10f5000fb
:1029200003003a002302ab00feff32000b00370029
:102930003302ab00feff32000800370033002000f6
:10294000b3bf9f00c0bf9f00d1bf9f00e2bf9f00e9
:102950006a8057002f0607006fb9970002007800c1
:102960000080fa0000000600889fbe008004780006
:10297000209580000000e00004003a000e000700ef
:102980000084eb000000e00008003500289580007e
:102990000900e000050032000900440006000700bd
:1029a0000000e00001003d000084eb00080078001a
:1029b0004f04be0000000600800078000100e00027
:1029c00003003a0000002000209588000000050068
:1029d0000080eb0002002000828f500002003e00c9
:1029e000219588000000eb000000060000000500b3
:1029f00003f0a200889fbe008a9fbe008c1f780053
:102a000009010700100133006450e1004f0032005b
:102a10006420e1005200320003826c0007003b009a
:102a20000905d0000306d000820f54000c065d009b
:102a300002003900020032008901780003067800a4
:102a40008582550004003d000003fd008103fd0068
:102a50008502ea008b854200840f720002003b0071
:102a600060001000e08018006011b8000005eb0065
:102a70007a28e1000a00390006007800c75ddd0011
:102a8000f707b200878075002d0037008281710042
:102a90000a017800610560008180d1000080d300c8
:102aa0008502e900f9ff3b000604400087844800e6
:102ab00002003b0060041400e0841c000988a300ad
:102ac000070032008a817100828171006101640017
:102ad0008904d1000884d3008b05e8001700370073
:102ae0000978a30013003a000b00e0001300340043
:102af0008b05e9000804440089844c000a447400f2
:102b00000978a3000d003a000b00e0000700340034
:102b10008b05e9000804440089844c0001003a0058
:102b20000b0020000978a300f7ff32000001eb0042
:102b300002003700828171000a0178007f000700df
:102b40000cf0a70001f0a000c80037006420e100ed
:102b500002003a00838f6c00c80033000801be00f9
:102b60000200be00c1003700889fbe008a9fbe00e1
:102b70008c1f7800ac000700b300330003866c00a4
:102b80006450e1002e0032006420e1003300320086
:102b90006150e1002f0032006120e100310032007d
:102ba00085855500eb07b0000900200008042000cf
:102bb000050037000804440089844c000a003100f5
:102bc0000603430087834b000001530081815b00b3
:102bd000f8ff33000203be000800a0000804440010
:102be00089844c00f6ff3900c639dd00830173008b
:102bf00001003200130020008904d1000884d300b2
:102c00000998a300050032000800a7000300a000f7
:102c10008904d1000884d3008b05e8008904d10021
:102c20000884d3000001eb000281d20043000700ba
:102c300001f0a1000cf0a70001f0a0008b0037000c
:102c40006420e1008d0032000801be000200be00d9
:102c5000f7ff37006120e100880032006000b80013
:102c6000f3ff37000000200001f82700f0ff3700d5
:102c7000839f68000100e00002003d00600010003a
:102c8000e08018000300e00002003d006001110038
:102c9000e0811900b00007004f00e00002003b0097
:102ca00060001000e0801800000006001400200002
:102cb000b9003700f4ff2f00b70037000001be0055
:102cc000440007000470a70003f0a10003f8a3006c
:102cd00013003a006509b100100032000900350008
:102ce0006928e1000200350001002800000005000d
:102cf00000004000818048008502e900fcff3a00a6
:102d000000000600f88f4200050035008100d10068
:102d10000080d3008502e800fcff3a0000000600b6
:102d20008000eb00000005004f89de008201780082
:102d3000b40037006011b800c200370081002000e5
:102d4000618055000b003d000b00200061fe2f004c
:102d50000100e1001d003400828171006101640006
:102d60008904d1000884d3000000e800faff3a008b
:102d70007100200061006400030070000200600028
:102d80000900320061044400e0844c000988a50079
:102d9000050032008b05e8006808e10002003a00f7
:102da0008904d1000884d300f20f20000258e1000a
:102db00005003d00c75ddd00f907b20089807500a0
:102dc00008007800000006000bf827008b00780050
:102dd00000000500c70ade00f107b200f50fb200df
:102de00008003200e1cf4200020032000170a00072
:102df00024000500810f7000010032000408050066
:102e000044000500810f700002003a001400050024
:102e10008502e9000000400081c04800fcff3b0043
:102e20000170a000240005000004be00e9ff0700b7
:102e30000003be000405be000200be00e5ff07005f
:102e4000844f7500000006000200be006450e100df
:102e5000050036006420e100020036000968a30086
:102e600001003a000800be000160a0004f06780093
:102e70004f05be004f04be0000000600f0ff2f000b
:102e8000f1ff2700f9ff3700889fbe008a9fbe0030
:102e90008c1f7800e4ff0700ebff330003866c0013
:102ea0006450e100240032006420e1002700320079
:102eb0006150e100220032006120e1002100320077
:102ec0008b854200eb07b1000134b800003ab8002e
:102ed0000804420089844a00013ab8000030b80072
:102ee0008880400009014a000400330000004000cf
:102ef00081804800020149008b05e900c909dd0015
:102f0000830170000100320013002000c814de00ad
:102f10004814dd004709de001200b200c808de00d8
:102f20000884700085ff070001f0a1000cf0a700e5
:102f300001f0a000cdff37006120e100cfff32009b
:102f40000801be000200be00f7ff37006150e1003b
:102f5000fcff3a00c9ff37006022b80006022000db
:102f60000000d0008180d2000482d2008582d2008d
:102f70000000a0000202520083825a0003003100c8
:102f80000202420083824a000000a1000603e90019
:102f9000f3ff3a0000000600889fbe008a9fbe0033
:102fa000841f7800a0ff07004f0078001100330055
:102fb000f0ff2f00838f6c0006003b0004056500c6
:102fc0000a00a7000800370009f0a6001000200042
:102fd00008003700820f5400838f5c000300390023
:102fe0001000200001003e000000200009f0a700b2
:102ff0000000ea004f05be004f04be000000e000e4
:1030000000000600881f7800030478000300e00039
:1030100007003d0060001000e0801800600119000a
:10302000e081190002003b0001f02d000300370091
:103030000400070008f0a70001f0a0004f0478008a
:1030400000000600889fbe008a9fbe0000827000bc
:103050000402710004827100260032000004be00e8
:103060000200be006011b8006b092000950220002c
:103070000182cf000a0039000541b1000082cf0073
:10308000070039000541b1000982cf000400390072
:103090000541b1000882cf00010039000541b100af
:1030a00005425200120032000a003b00828171008a
:1030b000610164008100d1000080d3008984d300c5
:1030c0000884d3008b05e8000442e800f7ff3a00cb
:1030d000070037000804440089844c0000004800c1
:1030e000818048008b05e9000442e900f9ff3a00bd
:1030f00012ff07004f05be004f04be00000006008f
:103100000c00fa00889fbe0000047800f0ff270042
:10311000d0bf9f008004eb0099bf9f0088bf9f0035
:10312000a8bf9f00200c2000b0bf9f0078815700ef
:10313000cfb0970070805700100007000fb89700bd
:10314000094878008fb89700088050004f04be00ef
:103150000080fa0000000600d001900002815100ba
:103160004240a900030034001001780001497800b2
:103170000208e8000100780000000600f68747001a
:10318000889fbe008a9fbe008c9fbe008e1f780065
:1031900000057800a1b79f00020778008004eb00cb
:1031a00092023700afb097008100e800a1b79f00fe
:1031b00051c2b300814f500003003a00afb09700f6
:1031c0000004eb0011003700ba0090000000fb0083
:1031d0000168a30007003200090178008000780030
:1031e0000a007800dcff07000000e00005003a005c
:1031f0007e0237008a00780088020700e10f400055
:103200007a0232008904e800780237000100780071
:1032100031417800d3c2b300834f51000c0032001b
:1032200007003c00edc15100834f51000a003200fd
:10323000ebc14100834f51000d003a0008003700f8
:1032400003c3b300834f510009003a000600370062
:103250000830a000edff37000800a000ebff3700aa
:103260000810a000e9ff37000820a000e7ff3700a2
:103270000818a300010032000800a1000838a300cc
:10328000010032000820a1008200fb000103b10010
:10329000e98f50000c003e00000178008000eb0038
:1032a000ea08b900b200fb000103b10080804000d1
:1032b000020078009201fb000303b100e98f510086
:1032c000f7ff3600060037008000eb00a3c2b30012
:1032d000834f510002003a00ce0078000000e80061
:1032e0008005eb00e2c2b300904f110008003a00e5
:1032f00008e0a00064415100d04f110002003200ec
:103300000001780006003700ce0578000000e800d4
:103310000001780008003700ea58b90080854100b4
:1033200002007800b201fb000303b100e98f5100f5
:10333000f9ff3600f6ff370032407800a2b79f0051
:10334000c3c6b300834f5000250032000f003c007d
:1033500032c6b300824f50008800320004003c00a7
:103360000004e000260232006b4151000f003700dc
:1033700042c6b300824f5000170032006541410041
:10338000824f500094003a001300370032c7b30058
:10339000824f50001b00320007003c006441510086
:1033a000824f5000100032000241e800824f50006e
:1033b00089003a000f00370052c7b300824f500017
:1033c0008a00320063414100824f500082003a007f
:1033d000e0df9f0009003700e0df9f008500370035
:1033e0000840a000d4ff3700e0df9f000860a00085
:1033f00080003700e0df9f000850a0000870a000a8
:103400007c003700e0df9f004e0078000006780067
:103410000000e00001003a000c2321000c017800bc
:103420000000eb00010037000000e80080014100cf
:103430001304e000fcff3a00800678000b00e00077
:10344000030032008d8f5500010031008b0678009b
:103450008005eb008d8f5000010036008d855000f7
:10346000680464002a003a00110037003a00900016
:103470000068a30007003200090178000102200063
:103480000a00780034ff07000000e00006003a0060
:10349000060037008a00780000022000df010700e4
:1034a000e10f4000010032008904e8008b05e900cb
:1034b0000b00e000edff3a008085eb0014003700c0
:1034c0003a0090000068a300090032000c00780068
:1034d000b000fb0000067800090178000a007800bf
:1034e0001dff07000000e00008003a000800370058
:1034f0008c0078003100fb00010678008a0078001b
:10350000c6010700e10f4000010032008904e80015
:103510000d0078008006e9000000e000e8ff3a00b6
:103520000800e000b1013200110037003a009000bd
:103530000068a300070032000901780001022000a2
:103540000a00780004ff07000000e00006003a00cf
:10355000060037008a00780000022000af01070053
:10356000e10f4000010032008904e8008b05e9000a
:103570000b00e000edff3a009c0137004e0178009f
:10358000cf91de00c81ade004818dd004812de00c8
:1035900004027000e4df9f000848a3000800320026
:1035a0000404e00006003200e14f42000400320053
:1035b000f4df9f0082e79f002d002000020037000b
:1035c000f2df9f001d002000e2fd2f000f014100ef
:1035d0000206e80099ff3700e0df9f00ecfd2f00b6
:1035e0000f0646001d00200094ff3700e0df9f001b
:1035f000080cb30008017800020cb20070006400ef
:103600000200e0000f003a000000e0000400320079
:10361000640757001e0678009e06900002003700df
:103620004e067800cfe6de00e00f5600e08f5e0029
:103630000c003d003800b30060061600e0861e0056
:10364000080037000000e000040032006407570063
:103650001e0678009e069000020037004e06780095
:103660008006eb000b00e00005003a008c85760038
:103670000bf0a7008b05ea008b05e900cf5dde00ab
:1036800088017800030cb200e3b79f00000420001b
:10369000808f51002300320003003c000300e00053
:1036a000080032002d003700000820006fb297009c
:1036b000800f52000d003200000c2000800f5200dd
:1036c00026003a008223210010c0b30064014100ab
:1036d000b20f5600a28f5e001f0039000040e800c4
:1036e000ea4f5000f9ff3a001b00370010c0b3004a
:1036f0000201200003002000820f5600838f5e002d
:1037000015003900441add00cc11de00830172007f
:103710004411dd000040e800e84f5000f6ff3a0099
:103720000d00370010c0b30082002000030020000d
:10373000820f5600838f5e0007003900431add00b8
:10374000cd11de00830172004311dd000040e8006e
:10375000eb4f5000f6ff3a00e0df9f006fd9970073
:103760000200fb008b0f500002003d00ebdf9f00ca
:1037700003003700808f550001003d008005780070
:103780000100e00003003200630064000100320029
:103790008100e90008e8a300050032008b8f50008b
:1037a000020034008b805000010037008000eb00e5
:1037b000efd997000300fb000002eb00d4b79f0095
:1037c000808f50000200340000805000d0b79f006e
:1037d0000828a30040003200610164000818a3001b
:1037e0000f0032003a0090000068a300060032008b
:1037f000b10220000200e000010032008180e800f8
:10380000090178000d003700b00220000200e0003e
:10381000010032000080e8008a0078000e003700c6
:103820000200e000100032003a0090000068a3009f
:103830000700320009017800010220000a00780028
:1038400045fe07000000e00006003a0006003700d1
:103850008a00780000022000f0000700e10f40001d
:10386000010032008904e8005fb097000000e0002a
:103870005a003200bcb79f00cdb79f008006780089
:103880003a0090000068a3000700320009017800a8
:10389000010320000a0078002ffe07000000e0006e
:1038a00006003a00060037008a0078000003200076
:1038b000da000700e10f4000010032008904e8004f
:1038c0008d06e900eeff3a00ddb79f003fb6970096
:1038d000cfb6970041003700dfb197000300e0004a
:1038e0001a0032000838a30018003a00bcb79f0045
:1038f000cdb79f00830678003a0090000068a300cf
:103900000700320009017800010220000a00780057
:1039100011fe07000000e00006003a000600370034
:103920008a00780000022000bc000700e10f400080
:10393000010032008904e8008d06e900eeff3a003c
:10394000ddb79f003fb69700cfb6970061016400d6
:103950000818a3000f0032003a0090000068a3008e
:1039600006003200b10220000200e0000100320037
:103970008180e800090178000d003700b0022000c6
:103980000200e000010032000080e8008a007800b8
:103990000e0037000200e000100032003a009000f4
:1039a0000068a3000700320009017800010220002e
:1039b0000a007800e8fd07000000e00006003a0079
:1039c000060037008a0078000002200093000700fc
:1039d000e10f4000010032008904e8000b03e90018
:1039e000e331b900b2b79f004233dd0080232100ec
:1039f000000343008e01780093b79f00080778000a
:103a0000060478005d0037008b05e9000004200003
:103a10006fb29700800f52003900320003003c0063
:103a20000400e000080032003f00370000082000da
:103a3000efb09700808f500021003200000c200072
:103a4000808f500038003a000e48a3001100320069
:103a500018027800980290000401be000c00be001d
:103a6000f4b79f0085bf9f003bfd0700e0df9f008c
:103a70000000fb00cf80de007fb297008fba970076
:103a80000401be00e50107000006560081865e00c5
:103a90000700370018017800110009000286d800dd
:103aa000a2002000110009000280d800e1df9f0081
:103ab0006fd997000243b000e2df9f001a00370081
:103ac000f02121000e58a30001003200e020210067
:103ad00081232100810054000c01be008100e90017
:103ae000030033008301d1000281d300fbff3700c4
:103af000ef0061000100400010407800090037002d
:103b00000c00be003fb297000402e900030033003e
:103b10008100d1000080d300fbff370067406000c8
:103b20000043b000e0df9f00ba0090006fd997001b
:103b30000200fb000168a3000700320009017800c1
:103b4000800078000a00780083fd07000000e00094
:103b500005003a00050037008a0078002f000700b2
:103b6000e10f4000010032008904e8003fb29700f5
:103b700063025200b4b79f00640454000b00e000dd
:103b8000a1ff3a000e0478001fb797000838a30081
:103b9000160032005fb097000000e0001300340010
:103ba000000478003a0090000068a300070032008b
:103bb00009017800010220000a00780066fd070074
:103bc0000000e00006003a00060037008a00780096
:103bd0000002200011000700e10f40000100320048
:103be0008904e8000804e900eeff3a00afb097004e
:103bf00011407800e0df9f000004e00069fd3a001a
:103c0000090078004f0778004f06be004f05be0040
:103c10004f04be006f01b10000000600889fbe0087
:103c200001047800b80090008084eb000118a30024
:103c30003a003200180190000198a30002003a00f7
:103c40000200e00035003a000190a0003104980025
:103c500080047800f90fb2000200e00002003a0090
:103c600028009000000c7800ea8f540005003a000c
:103c70000178a30003003a0088007800d0002000fb
:103c8000e6ff070018009000d8009000810f500058
:103c90000b0032000000e8001004980018007800c3
:103ca00009487800000ce80011c0b300c0292100c9
:103cb00001487800ea8f540018003a0005003700e8
:103cc000880078000940780013010700800478001c
:103cd00012003700380090000088a3000f00320067
:103ce00018019000a800900048009000dcfa07003e
:103cf00098009000810f50000400320038009000be
:103d00000003b300300498008084eb000000eb0057
:103d10001004980028009000000c7800090078003a
:103d20004f04be0000000600889fbe008a9fbe00b0
:103d30008c9fbe0061282100329480000200e000c8
:103d40000b003a006481400032948800829488001d
:103d5000a100980071948800214190000204a00005
:103d6000a2409800614190000204a000e240980047
:103d7000670440004244de004244dd007494800049
:103d80000100200009002000818454002d00200043
:103d9000110009008d04d800800678000886e8002c
:103da0000c0646008001eb000200370013002000e3
:103db0000b027800a44090000108a300020032002a
:103dc0000a003700120a780014017800a24090001f
:103dd0000108a300fbff320088004200810f510060
:103de000020039000800e00041003d009405780021
:103df0000b00a100848f5500edff3e00e18f5100c4
:103e0000eaff3a008d0f540002003600890f54007b
:103e1000130039006141b8006148b900b4ff2f00b8
:103e2000050020000000520081805a00800f5100e0
:103e3000818f5900020035006405440009003700f5
:103e4000000020003a00200000055500080545004c
:103e5000110009000985d8008985b90001003700e3
:103e60000c0578000a007800bffa0700e10f400057
:103e700005003a00640544000a007800bafa070019
:103e8000e10f40002c00320081948000800878000f
:103e900081948000e481400021419000830f500014
:103ea000020032000204a000010037000204a10059
:103eb000a2409800640555000a0540000a087800f1
:103ec0008a94880061282100010d78008294800086
:103ed000a24090000104a00021419800a040900061
:103ee0000104a100214098008001eb00b0ff3700e1
:103ef00071948800810f510008003600110178008c
:103f00009101900092948800a3948800940878000e
:103f10000041eb0071948000a240980073948000ef
:103f2000030a7800a44090000104a00021429800f8
:103f300064004200010037000000eb004f06be00a5
:103f40004f05be004f04be00000006000000e00068
:103f5000080032006400500071948000810f50000e
:103f60000100310070948800a04090000104a1007d
:103f70002140980000000600889fbe008a9fbe0076
:103f80000004be000900e00007003a000000eb005a
:103f90000800e0003600320008007800ebff070060
:103fa0000000eb00320037000800e00003003a0098
:103fb000090078005cff07002d0037006400540002
:103fc0009005780068f897000008a300020032000e
:103fd00008007800ddff07000900780052ff0700a5
:103fe000800478000000eb000900e00020003200af
:103ff000888f54001b00320069bd970009055500e9
:1040000042d5de0088855500c2ddde000a01780059
:104010008b0f5500010036000b0178004211dd00c6
:10402000880078000900780014000700888f540089
:104030000e0031004255dd000a854400880f55000e
:104040000a0036000804550042c4de004244dd0088
:104050000884440090948000a1948000008cbe00ed
:1040600002003700080078000100370009007800de
:104070004f05be004f04be0000000600800178001e
:1040800002003700b15978000201e9000200e000a7
:10409000fcff3a00000006008000eb00c09488009e
:1040a000d194880011c0b300602921000148780034
:1040b00000000600602921001004e00002003a0020
:1040c00010002000f4ff0700d2e62400631c240047
:1040d000c0948000d1948000500007009203230018
:1040e000030020000001410081814900c294880042
:1040f000d39488000300780000f0a10000000600bf
:10410000800078003104e000feff3a000080ea0001
:1041100000804000000006000200fa00889fbe00f8
:10412000a0ff9f0001047800380090000068a30001
:1041300033003a00e200600005003a000003b300db
:1041400030049800110498000080eb002e00370026
:10415000d80490000900e00006003a001200200098
:10416000e680570048009000bdf907001904980048
:1041700023003700a80090000100e00008003a008a
:10418000f129210021049800010c78002100200071
:1041900051049800110498000030a00030049800e9
:1041a00018019000a800900048009000acf90700aa
:1041b000280090008080eb0011049800aff8970071
:1041c00001487800000ce8002ff89700ea4f5000f3
:1041d0000b003a00380090000088a300080032006d
:1041e00018019000a8009000480090009cf907007a
:1041f0000000eb0010049800a8009000010c78006b
:10420000aff897000100fb004f04be000080fa00e9
:104210000000060000c0da0000000600020ab90033
:10422000001bb9000200b800810042008100430079
:044230000000060084
:020000040000fa
:10423400556e0000686100006e6400006c6500004b
:1042440064200000696e0000746500007272000052
:1042540075700000742c000020000000756e0000d2
:104264006b6e00006f7700006e0000006473000046
:104274005049000043330000334500005031000032
:104284003238000047500000353000003200000092
:1042940041330000004400006576000069630000bb
:1042a4006520000049440000203d0000200000007b
:1042b40020280000002900002c2000007265000066
:1042c40076690000736900006f6e00002000000032
:1042d400290a0000000a00000a2a00002a2a000015
:1042e4002a2a00002a2a00002a2a00002a2a00007a
:1042f4002a2a00002a2a00002a2a00002a2a00006a
:104304002a2a00002a2a00002a2a00002a2a000059
:104314002a2a00002a2a00002a2a00002a2a000049
:104324002a2a00002a2a00002a2a00002a2a000039
:104334002a2a00002a2a00002a2a00002a2a000029
:104344002a2a00002a0a00002a20000057410000ff
:10435400524e0000494e0000472000002d2000006e
:10436400746800006973000020700000726f000020
:1043740067720000616d0000207700006173000027
:10438400206300006f6d0000706900006c65000020
:1043940064200000666f0000722000007468000052
:1043a40065200000777200006f6e00006720000037
:1043b400202a00000a2a0000206300006869000027
:1043c400702e000020540000686900007320000073
:1043d400707200006f670000726100006d200000c1
:1043e4006d61000079200000707200006f640000ad
:1043f4007563000065200000756e0000657800009c
:1044040070650000637400006564000020620000b1
:1044140065680000766900006f72000021200000ca
:104424002a0a00002a200000456400006974000084
:1044340020740000686500002068000065610000c9
:104444006465000072200000666900006c6500006d
:1044540073200000746f000020700000726f000071
:1044640070650000726c0000792000006465000033
:10447400666900006e650000207400006869000031
:10448400732000006368000069700000202a0000a7
:104494000a2a0000206100006e64000020740000fd
:1044a4006f200000696e00007375000072650000e3
:1044b400206300006f7200007265000063740000e6
:1044c400206f0000706500007261000074690000d4
:1044d4006f6e00002e20000020200000202000002d
:1044e40020200000202000002020000020200000c8
:1044f4002020000020200000202000002a0a0000c4
:104504002a2000002020000020200000202000009d
:104514002020000020200000202000002020000097
:104524002020000020200000202000002020000087
:104534002020000020200000202000002020000077
:104544002020000020200000202000002020000067
:104554002020000020200000202000002020000057
:104564002020000020200000202a00000a2a000049
:10457400204e00004f540000453a0000204900003e
:104584006620000074680000697300002077000052
:1045940061730000206300006f6d0000706900000b
:1045a4006c65000064200000666f0000722000004b
:1045b4007468000065200000636f000072720000e0
:1045c40065630000742000006368000069700000e7
:1045d4002c200000202000002a0a00002a200000cd
:1045e400616e0000642000006f6e00006c790000b2
:1045f400206f0000636300007572000073200000e8
:1046040061740000207000006f7700006572000084
:104614002d6f00006e200000286e00006f740000f3
:104624002064000075720000696e000067200000bd
:10463400612000004d4300004c5200002020000087
:1046440020200000202a00000a2a00002072000016
:104654006573000065740000292c000020760000ba
:10466400657200006966000079200000746800002b
:104674006174000020410000564400004420000002
:10468400616e000064200000415600005353000096
:104694002061000072650000206300006f6e00005e
:1046a4006e65000063740000656400002e20000045
:1046b400202000002a0a00002a2000004f6e00007b
:1046c4002074000068650000205000004943000089
:1046d40032340000483300003247000050320000fa
:1046e400303200002c2000006e6f000074200000a7
:1046f400636f00006e6e0000656300007469000063
:104704006e67000020410000564400004420000071
:104714002020000020200000202000002020000095
:10472400202a00000a2a000020700000726f000096
:104734006475000063650000732000007468000065
:1047440069730000206d0000657300007361000050
:1047540067650000206f00006e6c00007920000087
:1047640061740000207000006f7700006572000023
:104774002d750000702e0000202000002020000075
:104784002020000020200000202000002020000025
:104794002a0a00002a2a00002a2a00002a2a0000e5
:1047a4002a2a00002a2a00002a2a00002a2a0000b5
:1047b4002a2a00002a2a00002a2a00002a2a0000a5
:1047c4002a2a00002a2a00002a2a00002a2a000095
:1047d4002a2a00002a2a00002a2a00002a2a000085
:1047e4002a2a00002a2a00002a2a00002a2a000075
:1047f4002a2a00002a2a00002a2a00002a2a000065
:104804000a0000004661000073740000205200009a
:10481400432000004f730000630a000000460000bc
:10482400617300007420000052430000204f000018
:1048340073630000207700006974000068200000a2
:10484400504c00004c0a0000005000007269000047
:104854006d61000072790000204f00007363000056
:1048640020280000585400002c2000004853000069
:104874002c20000045430000290a000000500000dd
:10488400726900006d61000072790000204f000021
:104894007363000020280000585400002c200000fe
:1048a400485300002c20000045430000292000004c
:1048b4007769000074680000205000004c4c000030
:1048c4000a00000053650000636f00006e6400007e
:1048d40061720000792000004f730000630a000039
:1048e400004c00006f770000205000006f7700003c
:1048f4006572000020520000432000004f73000046
:10490400630a000000460000617300007420000088
:1049140052430000204f0000736300002f31000059
:10492400360a000000460000617300007420000095
:1049340052430000204f0000736300002f4e00001c
:104944000a000000556e00006b6e00006f770000d7
:104954006e2000006f730000636900006c6c00003f
:10496400617400006f720000207400007970000010
:10497400652e0000000a000044650000766900000e
:10498400636500002068000061730000206200007d
:10499400656500006e200000696e00002073000051
:1049a4006c65000065700000206d00006f640000fd
:1049b400650a0000000a00004465000076690000f2
:1049c400636500002068000061730000206200003d
:1049d400656500006e200000696e0000206900001b
:1049e400646c0000652000006d6f000064650000c9
:1049f4000a0000000a52000065730000657400009c
:104a04002063000061750000736500003a20000017
:104a1400005000006f770000657200002d6f0000e9
:104a24006e2e00000a000000536f00006674000040
:104a34007761000072650000205200006573000079
:104a4400657400002e0a0000005700006174000025
:104a540063680000646f0000672000005469000070
:104a64006d6500006f750000743a000020000000be
:104a74000a0000004d4300004c5200002061000079
:104a84007373000065720000746900006f6e0000ab
:104a94002e0a000000420000726f0000776e0000d2
:104aa4002d6f0000757400002e0a000000540000f1
:104ab4007261000070200000436f00006e66000009
:104ac4006c690000637400002e0a000000490000b5
:104ad4006c6c000065670000616c000020430000fe
:104ae4006f6e000064690000746900006f6e00005e
:104af4002e0a0000004300006f6e0000666900008b
:104b04006775000072610000746900006f6e000038
:104b1400204d0000697300006d61000074630000a3
:104b2400682e00000a000000556e00006b6e000045
:104b34006f7700006e20000072650000736500004e
:104b4400742e00000a00000045720000726f00001d
:104b54007220000074720000617000007065000033
:104b6400643a00002000000050720000696f0000e9
:104b740072690000747900003a200000002c0000e3
:104b84002056000065630000746f0000722000006e
:104b94006e7500006d620000657200003a2000002e
:104ba400000a00000a00000045720000726f000055
:104bb40072200000696e0000202e00002e2f0000dd
:104bc4002e2e00002f6c0000696200002f7300007d
:104bd400726300002f70000069630000323400002b
:104be4005f750000746900006c2e000063200000f3
:104bf4006c6900006e650000203400003738000046
:104c04003a20000041530000534500005254000074
:104c140028750000313600005f62000072670000f2
:104c2400682000003c3d00002031000029200000e5
:104c340066610000696c0000656400002e0a0000d3
:104c440000450000727200006f72000020690000cd
:104c54006e2000002e2e00002f2e00002e2f0000ac
:104c64006c690000622f000073720000632f000063
:104c74007069000063320000345f00007574000046
:104c8400696c00002e630000206c0000696e000057
:104c94006520000034380000343a00002041000050
:104ca400535300004552000054280000665f000082
:104cb40062720000672000003c20000036350000ce
:104cc40035330000352e0000352900002066000031
:104cd400616900006c650000642e00000a00000099
:104ce400000000000000000000000000005f000061
:104cf400000000000007000000070000001400008e
:104d04007f1400007f140000242a00007f2a000082
:104d140012230000130800006462000036490000fa
:104d240055220000500000000503000000000000b0
:104d3400001c00002241000000000000412200008d
:104d44001c000000140800003e08000014080000c5
:104d5400083e000008080000005000003000000079
:104d640000080000080800000808000000600000b7
:104d74006000000000200000100800000402000091
:104d84003e510000494500003e000000427f000003
:104d9400400000004261000051490000462100002b
:104da400414500004b31000018140000127f000040
:104db4001027000045450000453900003c4a00002a
:104dc400494900003001000071090000050300009a
:104dd40036490000494900003606000049490000f0
:104de400291e00000036000036000000000000000c
:104df40056360000000000000814000022410000a4
:104e040000140000141400001414000000410000f9
:104e140022140000080200000151000009060000ed
:104e240032490000794100003e7e0000111100006b
:104e3400117e00007f49000049490000363e000011
:104e440041410000412200007f4100004122000056
:104e54001c7f000049490000494100007f0900000f
:104e640009090000013e000041490000497a0000a0
:104e74007f080000080800007f000000417f000058
:104e84004100000020400000413f0000017f00007d
:104e940008140000224100007f4000004040000050
:104ea400407f0000020c0000027f00007f0400002d
:104eb400081000007f3e000041410000413e000018
:104ec4007f09000009090000063e0000415100006e
:104ed400215e00007f0900001929000046460000f9
:104ee4004949000049310000010100007f01000030
:104ef400013f000040400000403f00001f20000030
:104f0400402000001f3f000040380000403f0000e8
:104f14006314000008140000630700000870000018
:104f240008070000615100004945000043000000eb
:104f34007f4100004100000002040000081000004e
:104f440020000000414100007f0000000402000036
:104f54000102000004400000404000004040000006
:104f6400000100000204000000200000545400006e
:104f7400547800007f4800004444000038380000a2
:104f84004444000044200000384400004448000029
:104f94007f3800005454000054180000087e0000bc
:104fa40009010000020c000052520000523e0000b1
:104fb4007f0800000404000078000000447d000025
:104fc4004000000020400000443d0000007f00003d
:104fd4001028000044000000004100007f40000051
:104fe400007c000004180000047800007c08000025
:104ff40004040000783800004444000044380000f1
:105004007c140000141400000808000014140000ac
:10501400187c00007c08000004040000084800001c
:105024005454000054200000043f00004440000099
:10503400203c000040400000207c00001c200000b8
:10504400402000001c3c000040300000403c0000b8
:105054004428000010280000440c000050500000b8
:10506400503c000044640000544c00004400000024
:105074000836000041000000000000007f0000002e
:105084000000000041360000080000001008000085
:10509400081000000878000046410000467800002f
:1050a400c0010000c0010000c0010000c0010000f8
:1050b400c00100000000000000000000000000002b
:1050c400000000000000000000000000000e0000ce
:1050d400000e0000000e00000000000000000000b0
:1050e40000000000000000000000000000000000bc
:1050f40000000000000000000000000000000000ac
:10510400000000000000000000000000000000009b
:10511400000000000000000000000000fc0300008c
:10512400fe070000ff0f0000030c0000030c00004a
:10513400ff0f0000fe070000fc0300000000000059
:1051440000000000000000003000000038000000f3
:105154001c000000ff0f0000ff0f0000ff0f000005
:105164000000000000000000000000000c0c000023
:105174000e0e00000f0f0000830f0000c30d00008f
:10518400ff0c00007e0c00003c0c0000000000003e
:1051940000000000040300000e0700000f0f0000d1
:1051a400630c0000630c0000ff0f0000fe0700000a
:1051b4009c0300000000000000000000c00100008b
:1051c400e0010000f80100009c0100008e010000d5
:1051d400ff0f0000ff0f0000ff0f00008001000020
:1051e40000000000780300007f0700007f0f00002c
:1051f400330c0000330c0000f30f0000e307000041
:10520400c30300000000000000000000f8010000db
:10521400fe070000ff0f0000230c0000330c000009
:10522400f70f0000e7070000c603000000000000bd
:10523400000000000300000003000000030e000053
:10524400c30f0000f30f0000fb0000000f0000007c
:105254000300000000000000000000009c030000a8
:10526400fe070000ff0f0000630c0000630c000049
:10527400ff0f0000fe0700009c0300000000000078
:10528400000000003c0600007e0e0000ff0e00003f
:10529400c30c0000430c0000ff0f0000fe070000d9
:1052a400f8010000000000005541000052540000c5
:1052b4003120000070610000726900007479000000
:1052c40020650000727200006f7200000a00000086
:1052d4005541000052540000312000006672000065
:1052e400616d0000696e00006720000065720000b7
:1052f400726f0000720a0000005500004152000065
:1053040054310000206f00007665000072720000c6
:10531400756e000020650000727200006f7200005c
:105324000a00000045720000726f00007220000045
:10533400696e0000202e00002e2f00002e2e00008b
:105344002f6c0000696200002f730000726300007c
:105354002f70000069630000323400005f750000a4
:1053640061720000742e0000632000006c6900006c
:105374006e65000020330000363100003a20000042
:1053840041530000534500005254000028750000aa
:10539400333200005f620000617500006452000057
:1053a40061740000652000003e3d000020310000d3
:1053b40030300000304c00002920000066610000fd
:1053c400696c0000656400002e0a000000550000ae
:1053d400415200005432000020700000617200004d
:1053e400697400007920000065720000726f00008b
:1053f400720a0000005500004152000054320000bf
:1054040020660000726100006d6900006e67000094
:1054140020650000727200006f7200000a00000034
:105424005541000052540000322000006f76000005
:1054340065720000727500006e2000006572000045
:10544400726f0000720a00000045000072720000d2
:105454006f720000206900006e2000002e2e0000f4
:105464002f2e00002e2f00006c690000622f000018
:1054740073720000632f0000706900006332000043
:10548400345f000075610000727400002e63000038
:10549400206c0000696e00006520000037350000b4
:1054a400313a0000204100005353000045520000ef
:1054b4005428000075330000325f00006261000070
:1054c400756400005261000074650000203e000015
:1054d4003d20000031300000303000004c29000035
:1054e40020660000616900006c650000642e000005
:1054f4000a00000045720000726f00007220000074
:10550400696e0000202e00002e2f00002e2e0000b9
:105514002f6c0000696200002f73000072630000aa
:105524002f70000069630000323400005f730000d4
:1055340065720000696100006c2e000063200000a9
:105544006c6900006e65000020380000313a0000ec
:10555400204900006e760000616c00006964000060
:105564002055000041520000540000003078000033
:1055740000450000727200006f7200002069000094
:105584006e2000002e2e00002f2e00002e2f000073
:105594006c690000622f000073720000632f00002a
:1055a4007069000063320000345f0000736500001e
:1055b40072690000616c00002e630000206c000022
:1055c400696e00006520000032390000363a0000a0
:1055d400204900006e760000616c000069640000e0
:1055e40020550000415200005400000045720000a4
:1055f400726f000072200000696e0000202e00000f
:105604002e2f00002e2e00002f6c00006962000077
:105614002f730000726300002f70000069630000a4
:10562400323400005f73000065720000696100009d
:105634006c2e0000632000006c6900006e650000a1
:1056440020330000333500003a200000496e00008a
:10565400766100006c690000642000005541000080
:10566400525400000000000050c3000030750000d8
:10567400204e00001027000088130000b80b000023
:10568400d0070000e8030000f40100002c01000032
:10569400c800000064000000320000001e0000008a
:1056a400140000000a0000000500000003000000d0
:1056b40002000000010000000503000002010000d8
:1056c400321e0000140a000005030000020100005d
:1056d40005030000020100000503000002010000b0
:1056e40045720000726f000072200000696e0000b5
:1056f400202e00002e2f00002e2e00002f6c000004
:10570400696200002f730000726300002f700000b4
:1057140069630000323400005f740000696d0000aa
:10572400657200002e630000206c0000696e0000aa
:1057340065200000353800003a2000004153000085
:105744005345000052540000286600005f740000b6
:10575400696300006b730000203c000020360000e9
:1057640035350000333500002e35000029200000b7
:1057740066610000696c0000656400002e0a000088
:1057840000450000727200006f7200002069000082
:105794006e2000002e2e00002f2e00002e2f000061
:1057a4006c690000622f000073720000632f000018
:1057b4007069000063320000345f00007469000007
:1057c4006d650000722e0000632000006c6900000b
:1057d4006e65000020370000363a000020410000ca
:1057e400535300004552000054280000665f000037
:1057f40074690000636b0000732000003c2000000b
:105804003635000035330000352e00003529000000
:1058140020660000616900006c650000642e0000d1
:105824000a00000045720000726f00007220000040
:10583400696e0000202e00002e2f00002e2e000086
:105844002f6c0000696200002f7300007263000077
:105854002f70000069630000323400005f740000a0
:10586400696d0000657200002e630000206c00006a
:10587400696e00006520000031360000303a0000f7
:1058840020410000535300004552000054280000fa
:10589400753800005f540000434b00005053000073
:1058a400203c00003d200000332900002066000059
:1058b400616900006c650000642e00000a000000ad
:1058c400542e00000a2e00002e2f000065630000f5
:1058d4007265000064690000742e0000632c0000ef
:1058e40020620000756900006c740000206f0000e5
:1058f4006e20000044650000632000002034000096
:1059040020320000303100003820000061740000b3
:1059140020300000393a0000303600003a340000ec
:10592400340a0000005200004541000044590000c0
:105934003f0a00000a0a00000a50000072650000d5
:10594400737300002062000075740000746f00001f
:105954006e0a0000746f0000206600006c7900007d
:10596400210000002564000000670000616d000054
:10597400652000006f76000065720000203a000088
:10598400280000000a4e000045570000204800008f
:105994004947000048200000534300004f520000d4
:1059a4004500000042550000424200004c45000002
:1059b400204300004f55000052530000450a0000e8
:1059c400763100002e3000000a0a0000425900001f
:1059d4003a0a00004a6f000072640000616e000021
:1059e400205300002e0a0000456c0000697300007b
:1059f400616200006574000068200000412e000010
:105a0400006900006e730000706900007265000098
:105a140064200000627900000a0a0000464c00007d
:105a2400415000005059000020420000495200003b
:105a3400440a00000a0a0000522e0000492e000009
:105a4400502e0000203200003031000034000000ed
:105a54006869000067680000657300007420000036
:105a6400736300006f720000653a00000a000000d2
:105a74000a0a0000596f00007572000020630000dc
:105a84006c6f0000636b000020630000686f00000f
:105a9400696300006520000066610000696c000015
:105aa40065640000207400006f200000696e00002f
:105ab40069740000696100006c6900007a65000087
:105ac4002e20000053650000652000002e2e0000eb
:105ad4002f2e00002e2f00006c690000622f0000a2
:105ae40073720000632f00007069000063320000cd
:105af400345f0000636c00006f6300006b6600009d
:105b040072650000712e0000632000006c690000c3
:105b14006e65000020320000303300002066000073
:105b24006f720000206d00006f720000652000009d
:105b34006465000074610000696c0000732e00004d
:105b4400002e00002e2e0000202d00002d2d000020
:105b5400202e00002e2e000000450000727200006e
:105b64006f720000206900006e2000002e2e0000dd
:105b74002f2e00002e2f00006c690000622f000001
:105b840073720000632f000070690000633200002c
:105b9400345f0000636c00006f6300006b660000fc
:105ba40072650000712e0000632000006c69000023
:105bb4006e65000020320000323000003a20000000
:105bc4004153000053450000525400002875000062
:105bd400385f0000736f0000757200006365000099
:105be400203c0000203800002920000066610000ed
:105bf400696c0000656400002e0a000000000000cb
:105c04004932000043310000205300007461000059
:105c1400727400000049000032430000312000008b
:105c240052530000746100007274000000490000c7
:105c34003243000031200000537400006f700000f4
:105c4400004900003243000031200000507500007c
:105c54007400000049320000435000005554000015
:105c6400312c0000204e0000414b00002072000047
:105c740065740000757200006e650000642e0000fb
:105c84000049000032430000312000004765000055
:105c94007400000049320000433200002053000029
:105ca4007461000072740000004900003243000077
:105cb400322000005253000074610000727400002e
:105cc40000490000324300003220000053740000f9
:105cd4006f700000004900003243000032200000d1
:105ce4005075000074000000493200004350000069
:105cf40055540000322c0000204e0000414b00009f
:105d04002072000065740000757200006e6500006a
:105d1400642e0000004900003243000032200000dd
:105d24004765000074000000535000004931000032
:105d3400205200006563000065690000766500007c
:105d4400204f000076650000726600006c6f000052
:105d5400770a000000530000504900003220000080
:105d6400526500006365000069760000652000004c
:105d74004f76000065720000666c00006f770000cb
:105d84000a000000636f00006e7600006572000078
:105d94007441000044430000312800002900000041
:045da400542e000079
:020000040000fa
:105da8000400fa00008fbe001e0078009e009000dc
:105db800d31407001e0078009e009000c409de007e
:105dc8004c0add004401de000201720020808000e0
:105dd80031808000020040008380480020808800d5
:105de800318088000080fa00000006000000fa00f8
:105df800b01220001012880041e2a8000080fa00ca
:105e0800000006000000fa0010cea90016cea90076
:105e18001acea9001ccea900118ea900178ea900c0
:105e28001b8ea9001d8ea90011aea90017aea900ee
:105e38001baea9001daea90011cea90017cea9005e
:105e48001bcea9001dcea900e8ff07000080fa00bc
:105e5800000006000000fa00158ea80015cea80064
:105e680080e1220001002000cdff070015aea90047
:105e7800909e2e0001002000c9ff070015aea80063
:105e880010c2b3005900070020ccb3005700070028
:105e980030c1b3005500070000c2b300530007002b
:105ea80090c0b30051000700909e2e000100200012
:105eb800bbff0700100007008040eb000040eb002c
:105ec800b40007002900070080c0b300470007009e
:105ed800909e2e0001002000b1ff0700c0c0b30053
:105ee80042000700909e2e0001002000acff070032
:105ef8000080fa00000006000200fa000040eb00f3
:105f080010479800140037000040eb00004f78005d
:105f18000a0037001e81fb001e4090000080fb0035
:105f280061012100e611b900000041000080400035
:105f38008040eb00014878001e4fe80030c5b300f0
:105f48009e40780080cf5000f2ff36001e4090003f
:105f58000040e800104798001e409000e54f5000b0
:105f6800e9ff36000080fa00000006000200fa008f
:105f78001270ef001370ef000040eb00104798001c
:105f8800150037000040eb00004f78000b00370089
:105f98009e80fb001e4090000080fb00e609b900cf
:105fa80082007800008040006101210000804000ec
:105fb80010407800160007001e4fe80030c5b300f7
:105fc8009e40780080cf5000f1ff36001e409000c0
:105fd8000040e800104798001e409000e54f500030
:105fe800e8ff36000080fa00000006000200fa0010
:105ff800004f7800158ea90015cea9001e40780024
:106008000c00070015cea8000080fa00000006006a
:106018000200fa00004f7800158ea80015cea900de
:106028001e4078000300070015cea8000080fa0083
:10603800000006000200fa00004f78001e80fb00f6
:106048006f1307000080fa00000006000200fa0043
:10605800004f780010c2b300e4ff07001e4078002c
:106068000074a000e1ff070000c2b300dfff0700d3
:106078000080fa00000006000000fa00a17080000d
:10608800000420000080600000f0a7000000ea0083
:106098000000e9004f00de00004078000080fb00af
:1060a800610060004600dd00a2708000f1fb2f0057
:1060b8008100610001007000a07088000080fa0073
:1060c800000006000200fa00004f78009e407800a9
:1060d80061c060000080fb00610060004600dd00d8
:1060e800a2708000f1fb2f008100610001007000a8
:1060f800a07088000080fa00000006000200fa0084
:106108000040eb00104798001d0037000040eb00ee
:10611800004f7800130037009e81fb001e4090005e
:106128000080fb001e81fb009e4090008180fb00e8
:10613800e611b9008100410062012100810041009f
:106148009140780081c0ea0062012100e61ab90096
:106158008401780000804100000041000148780077
:106168001e4fe80030c5b3009e40780080cf500035
:10617800e9ff36001e4090000040e80010479800f4
:106188001e409000e54f5000e0ff36000080fa0006
:10619800000006000200fa00004f7800114798003e
:1061a80030c5b3009e40780080cf50000200360012
:1061b80030c5b300004f78001e409000e54f5000f6
:1061c8000200360050c0b300104798001e41780006
:1061d80021012100824878001e41900031012100f0
:1061e800824878000080fa00000006000000fa00eb
:1061f80012d0bf000004e0000c003a00e0c4b30075
:1062080012f0b70013d0bf000004e00003003a000a
:1062180050c0b30013f0b7000700370013d0bf0019
:106228000040e90013f0b7000300370012d0bf00a8
:106238006640500012f0b7000080fa000000060027
:106248000400fa00204798002e409000ed4f5000bf
:10625800030032002e409000ea4f500009003a0037
:1062680013d0bf000040e80013f0b7001270ef0031
:1062780013d0bf00e54f5000870036001370ef00c1
:106288008a0037002e409000e84f500043003a0043
:10629800d6ff070012d0bf000081fb0013d0bf005b
:1062a8000080fb0061012100e611b90000004100f7
:1062b800008040008040eb000148780012d0bf0009
:1062c8000080fb000001e80013d0bf000080fb0045
:1062d80061012100e611b900000041000080400082
:1062e8008040eb000148780012d0bf000080fb001e
:1062f8000081e80013d0bf000080fb00610121008d
:10630800e611b90000004100008040008040eb0029
:106318000148780012d0bf000080fb0063014000f4
:1063280013d0bf000080fb0061012100e611b90015
:1063380000004100008040008040eb0001487800e8
:1063480012d0bf000080fb006401400013d0bf00e2
:106358000080fb0061012100e611b9000000410046
:10636800008040008040eb000148780012d0bf0058
:106378000080fb006501400013d0bf000080fb00d7
:1063880061012100e611b9000000410000804000d1
:106398008040eb0001487800440037002e40900010
:1063a800ff4f50003e0036002e4090000004e000f1
:1063b8003d0035000040eb00004f78002500370015
:1063c800210121009140780030c5b30080cf5000f2
:1063d800080036001270ef0013d0bf000040e8003c
:1063e80013f0b70013d0bf00e54f5000010036008e
:1063f8001370ef0012d0bf008081fb0013d0bf00e4
:106408000080fb00ae4090008180fb0002fe2f0060
:10641800010141009e80fb00e511b90081004100a7
:1064280022672a0081004100914078006201210022
:10643800e61ab9008401780000804100000041009c
:106448000148780012d0bf000040e80012f0b70001
:106458001e4fe8001e407800e44f5000d8ff360079
:1064680012d0bf000081fb0013d0bf000080fb00ea
:1064780061012100e611b9000000410000804000e0
:106488008040eb000148780012d0bf000040e800cf
:1064980012f0b700050037000000000003003700c5
:1064a8000000000001003700000000000080fa0032
:1064b800000006000200fa00000f78000400370010
:1064c8001e007800104078005dff07001e0fe800ee
:1064d8001e007800104078000004e000f8ff3a0041
:1064e8000080fa00000006000600fa004047980005
:1064f800ce40900000c2b30080cf500002003a00a6
:10650800f0c2b30040479800ce409000e0c2b3000c
:1065180080cf500003003a0050c0b30010479800e5
:1065280002003700a0c0b30010479800ce4090008a
:1065380030cdb30000c04000204798000040eb0079
:10654800004f78002e00370012d0bf000082fb00f9
:1065580013d0bf008081fb002e4090008080fb009c
:106568001e80fb0000004000f409b900820078009a
:106578000080400021852a000080400010407800fb
:106588008040780062012100e620b9000300400045
:10659800000041000148780012d0bf000082fb00d3
:1065a80013d0bf000080fb008001e8002e4090005f
:1065b8008080fb001e80fb00000040000000e80017
:1065c800f409b900820078000080400021852a0083
:1065d800008040001040780080407800620121006f
:1065e800e620b9000300400000004100014878009f
:1065f80012d0bf000040e80012f0b7001e4fe800bc
:106608001e4090009e40780080cf5000ceff390099
:106618000080fa00000006000800fa0040479800d1
:106628005147980062479800ce40900030c5b300ab
:1066380080cf50005c003e00de409000f0c2b30006
:1066480080cf50005a003e005e4090008080fb00e2
:106658005e4090000080fb004300de0000407800b0
:106668000081fb0080ff2f008090b900008040006f
:10667800000f78006e4090000004e0000600320031
:106688001e007800110020000008dd00004078009e
:10669800204798000a003700e0cfb3002047980051
:1066a800040037000e80e80011c0b300d6020700ce
:1066b8001e0fe9001e0078000000e000f9ff3a0014
:1066c8005e4090000080fb004300de000040780040
:1066d800804078004e409000aefe07006e4090006b
:1066e8000004e0001800320012d0bf008081fb00d7
:1066f80013d0bf000080fb002101210091407800e9
:106708000181fb0031012100914078008180fb006c
:10671800e611b900810041006201210081004100b9
:1067280011417800ae409000814071006201210063
:10673800e61ab90084017800008041000000410099
:10674800014878001b00370012d0bf008081fb0091
:1067580013d0bf000080fb00210121009140780088
:106768000181fb0031012100914078008180fb000c
:10677800e611b90081004100620121008100410059
:1067880011417800ae409000814061006201210013
:10679800e61ab90084017800008041000000410039
:1067a80001487800030037000000000001003700ae
:1067b800000000000080fa00000006001200fa0045
:1067c800404f9800514f9800624f9800734f9800bf
:1067d8000457980010c0b300004f780010c0b300f1
:1067e800104798000040eb0040479800ee489000a2
:1067f8004e48900000c050000000fb0000f0a700c9
:106808000000ea0030079800fe4890005e489000bb
:1068180000c050000000fb0000f0a7000000ea00e4
:1068280040079800ce4890006e48900080cf5000f6
:106838000200360000c0eb00004f7800de489000f0
:106848007e48900080cf50000200360000c0eb0068
:1068580010479800be0090004e009000808f5000b6
:10686800310039004e0090000000400040079800b9
:10687800ce0090003e009000008050001007980065
:106888009e0090003e009000008050005007980045
:106898001f0037000e519000de4890004e489000cf
:1068a8005dff07001e0090000000e00009003d00a9
:1068b8009e0090004e009000008040001007980055
:1068c8001e407800ce48900000c04000404f98001d
:1068d8000c0037009e0090005e0090000080400091
:1068e800100798001e407800ce48900000c0400075
:1068f800404f98001e409000de48900000c04000c5
:10690800504f98004e4090000040e80040479800e3
:106918004e4090008080fb003e009000808f500029
:10692800dcff3600300037003e00900000004000d9
:1069380030079800be0090004e0090000080500084
:10694800100798009e0090004e00900000805000b4
:10695800500798001f0037000e519000de48900045
:106968004e4890002cff07001e0090000000e00039
:1069780009003d009e0090003e009000008040000d
:10698800100798001e409000de48900000c04000ac
:10699800504f98000c0037009e0090005e00900059
:1069a80000804000100798001e407800ce489000f4
:1069b80000c04000404f98001e409000de48900004
:1069c80000c04000504f98004e4090000040e80042
:1069d800404798004e4090008080fb004e00900099
:1069e800808f5000dcff36000080fa0000000600af
:1069f8000c00fa006047980071479800024f980011
:106a0800134f9800244f9800354f98002e48900057
:106a18000004e0002f003200ee4090000e48900085
:106a280080cf500005003100ee40900011479800db
:106a38008e48900021479800040037008e48900047
:106a480011479800ee40900021479800fe409000c2
:106a58001e48900080cf500005003100fe40900095
:106a6800314798009e48900041479800140037002d
:106a78009e48900031479800fe409000414798009a
:106a88000f003700be409000014f78000500370026
:106a98003e4990009e4078001e409000defe0700b0
:106aa8001e4fe8004e4090009e40780080cf500076
:106ab800f7ff36001e4090000040e800104798009d
:106ac8009e4090002e40900080cf5000edff360091
:106ad800180037003e4a9000fe4190000e49900091
:106ae800fe4090006e40900034ff07003e4a900040
:106af8009e4990000e4990009e4890006e4090007c
:106b08002eff07003e4a90009e4990006e4190007b
:106b1800fe4090006e40900028ff07003e4a90001b
:106b28009e4990000e499000fe4090000e4890004b
:106b380022ff07000080fa00000006001e00fa008d
:106b4800005f9800115f9800225f9800335f9800fb
:106b5800445f9800555f980010c0b300004f78005c
:106b680010c0b300104798000040eb00204f980079
:106b7800ae5890000e58900000c050000000fb0076
:106b880000f0a7000000ea0060079800be589000d7
:106b98001e58900000c050000000fb0000f0a70045
:106ba8000000ea00700798004e5890000080fb0033
:106bb8000000d100005798000e5890008080fb001c
:106bc8006e0090008088b900800078001e58900000
:106bd8000081fb007e0090008090b900008040009a
:106be8000000ea00300798002e5890008080fb00d3
:106bf8006e0090008088b900800078003e589000b0
:106c08000081fb007e0090008090b9000080400069
:106c18000000ea00400798008e5890002e58900017
:106c280080cf500008003600be009000110f980079
:106c3800ce009000310798009e0890004107980008
:106c480000c0eb00004f78009e5890003e5890001e
:106c580080cf500008003600be009000210f980039
:106c6800ce00900031079800ae08900041079800c8
:106c780000c0eb0010479800ee0090007e009000e6
:106c8800808f5000470035007e00900000004000d3
:106c9800800078006e009000008050002007980067
:106ca800ae0090006e00900000805000300f9800f9
:106cb8000040eb00204f9800340037000e50900041
:106cc8000040ea00204798000a003700ae409000d4
:106cd8001e58900000c040005e5990008040780027
:106ce8000e5890004cfe07002e4090000040e8002f
:106cf800204798002e4090008000fb000e50900026
:106d08000081fb004e5890000080fb00610060008d
:106d180000004100808f5000ecff35002e009000ed
:106d28000000e0000a003d007e00900000004000e6
:106d3800ae00900000804000200798001e407800b8
:106d48008e58900000c04000005f98000c0037008b
:106d5800ae0090003e089000008040002007980098
:106d68001e4078008e58900000c04000005f9800d8
:106d78001e4090009e58900000c04000105f980090
:106d88002e4890000040e800204f98002e489000c0
:106d98008080fb006e009000808f5000c7ff340099
:106da800450037006e009000000040008000780029
:106db8007e0090000080500020079800ae009000f0
:106dc8007e00900000805000300f98000040eb00db
:106dd800204f9800330037002e0090000000e0009c
:106de8000a003d006e00900000004000ae009000d8
:106df80000804000200798001e4090009e58900098
:106e080000c04000105f98000c003700ae009000f2
:106e18003e08900000804000200798001e4078003f
:106e28008e58900000c04000005f98001e409000ff
:106e38009e58900000c04000105f98000e509000cf
:106e48000040ea002047980009003700ae40900053
:106e58000e58900000c040005e5990009e58900067
:106e6800edfd07002e4090000040e8002047980004
:106e78002e4090008000fb000e5090000081fb0027
:106e88004e5890000080fb00610060000000410047
:106e9800808f5000edff35002e4890000040e8003c
:106ea800204f98002e4890008080fb007e009000c4
:106eb800808f5000c8ff34000080fa0000000600f0
:106ec8000a00fa0040479800514798006247980026
:106ed80073479800044f98000040eb00004f78007b
:106ee800ee4090001147980011c0b3006e4090002a
:106ef80000c05000204798007e4090000004e00049
:106f0800390032009e4090005e40900080c14000f1
:106f18009e4078004e40900000c140009e40900086
:106f28005e40900080c040001e4078004e429000b5
:106f3800004052000e4a900020fe07001e409000bc
:106f4800de40900080c150009e4078004e40900086
:106f580000c140001e409000de40900080c05000fc
:106f68001e4078004e429000004052000e4a9000a9
:106f780012fe07009e4078005e40900080c14000ed
:106f88009e4090004e40900000c140009e40780016
:106f98005e40900080c040001e4090004e4290002d
:106fa800004052000e4a900004fe07001e40780080
:106fb800de40900080c150009e4090004e409000fe
:106fc80000c140001e407800de40900080c05000a4
:106fd8001e4090004e429000004052000e4a900021
:106fe800f6fd0700400037009e4090005e4090008c
:106ff80080c040001e4178004e4090000040410093
:107008000e49900084fd07009e4078005e40900085
:1070180080c040001e4190004e409000004041005a
:107028000e4990007cfd07009e4090005e40900055
:1070380080c040001e4078004e4190000040510042
:107048000e49900074fd07009e4078005e40900055
:1070580080c040001e4090004e419000004051000a
:107068000e4990006cfd07001e407800de4090003d
:1070780080c050001e4190004e40900000404100ea
:107088000e49900064fd07001e409000de4090000d
:1070980080c050001e4178004e40900000404100e2
:1070a8000e4990005cfd07001e409000de409000f5
:1070b80080c050001e4078004e41900000405100b2
:1070c8000e49900054fd07001e407800de409000f5
:1070d80080c050001e4090004e419000004051007a
:1070e8000e4990004cfd07002e4090000004e0007f
:1070f80009003d001e4078000040400080407800b4
:107108002e40900000c04000634040002047980097
:107118001e4fe8000f0037009e00fb001e40900045
:107128000000fb0000805000004078000040400054
:10713800804078002e40900000c04000654040002c
:10714800204798001e4fe8001e4090000040e900cc
:10715800104798001e4090009e40780080cf500055
:1071680065ff34000080fa00000006000800fa00fd
:10717800300798000000eb00200798000000eb00a3
:10718800100798001b0037000000eb00000f780084
:10719800110037002e009000be00900000804000d3
:1071a80010407800804078001e00780062012100bd
:1071b800e600b900800178001e00900000804100c0
:1071c80000004100014878002e0090000000e8000f
:1071d800200798001e0fe800300520009e00780068
:1071e800808f5000ebff34001e0090000000e80084
:1071f800100798001e009000e50f5000e2ff3400d1
:107208000080fa00000006000400fa00000f780071
:10721800214798002e409000674060002047980062
:107228002e4090000004e000140032001e00780098
:10723800104078008080fb002e4090000080fb000a
:107248000008dd00804078001e00780010407800bb
:107258000081fb002e4090000080fb0068001000b9
:107268000090de000040780000c070008040780088
:107278001e00780001487800010037000000000077
:107288000080fa00000006000400fa0010079800c9
:107298001e0090008000eb000001be00909e2e00b2
:1072a8000100200070ee0700000f78001e0fe900b3
:1072b800f01f20009e007800808f500002003600ea
:1072c800f01f2000000f78009e0078002110880031
:1072d80007e2a8000080fa00000006000200fa0099
:1072e80020e02a0070808800003a80004500de0017
:1072f80061406000004f780040a7a8000602a8007f
:107308000000000030108000610060000000e00014
:10731800fcff3a009e40780061c060000080fb00de
:10732800610060004500dd00023a8000f1fd2f0099
:107338008100610001007000003a88000e30ef0003
:107348000080fa00000006000200fa00d0e02a00df
:1073580070808800003a80004500de0061406000cf
:10736800004f780040a7a8000622a80000000000ef
:1073780030108000620060000000e000fcff3a006e
:107388009e40780061c060000080fb0061006000e2
:107398004500dd00023a8000f1fd2f008100610008
:1073a80001007000003a88000e30ef000080fa00fb
:1073b800000006000200fa0090e12a0070808800b0
:1073c800003a80004500de0061406000004f780010
:1073d80040a7a8000642a800000000003010800066
:1073e800640060000000e000fcff3a009e40780066
:1073f80061c060000080fb00610060004500dd00a6
:10740800023a8000f1fd2f00810061000100700048
:10741800003a88000e30ef000080fa0000000600f5
:107428000400fa002047980030e22a0070808800a3
:10743800003a80004500de0061406000004f78009f
:1074480040a7a8002e4090000080fb001010880084
:10745800000000004110800000002400008060004f
:107468000000e000fbff3a009e40780061c0600029
:107478000080fb00610060004500dd00023a8000ea
:10748800f1fd2f008100610001007000003a8800c2
:107498000e30ef00411080000000280000806000de
:1074a8000000e00002003200c0e22a00c504070024
:1074b8000080fa00000006000400fa002047980047
:1074c80030e22a0070808800003a80004500de0023
:1074d80061406000004f780040a7a8002e4090004f
:1074e8000080fb00101088000000000041108000a0
:1074f80000002400008060000000e000fbff3a006c
:107508009e40780061c060000080fb006100600060
:107518004500dd00023a8000f1fd2f008100610086
:1075280001007000003a88000e30ef004010800023
:107538004f00de00004078000080fa0000000600de
:107548000400fa002047980030e42a007080880080
:10755800003a80004500de0061406000004f78007e
:1075680040a7a80000000000301080007f006000e5
:107578000000e000fcff3a000662a80000000000de
:1075880040108000620060000000e000fcff320054
:107598000060fe0000108000104798000000000006
:1075a800301080007f0060000000e000fcff3a001f
:1075b8002e409000614060000080fb006100600088
:1075c8004500dd0032108000f1fd2f0081006100d0
:1075d80001007000301088000682a800000000003a
:1075e80030108000700060000000e000fcff3a00ee
:1075f8009e40780061c060000080fb006100600070
:107608004500dd00023a8000f1fd2f008100610095
:1076180001007000003a88000e30ef001e40900014
:107628000080fa00000006000200fa00004f78000f
:107638001147980029ff0700e0cfb3001e40600003
:1076480077ff07001e40900075ff070059ff0700ed
:107658000080fa00000006000400fa00004f7800dd
:1076680011479800224798001cff0700e0cfb3009d
:107678001e4060006aff07001e40900068ff070078
:107688002e40900066ff07004aff07000080fa00be
:10769800000006000800fa0020479800210798001b
:1076a800320798000dff0700ae409000e0cfb3000e
:1076b80000c060005aff07000000eb00000f7800d0
:1076c800070037002e0090001040780054ff070094
:1076d8002e0090000000e800200798001e0fe80028
:1076e8003e0090009e007800808f5000f5ff390022
:1076f80030ff07000080fa00000006000400fa00ce
:10770800004f780011079800f4fe07001e4078002b
:107718000004a00042ff070010c0b30088ff070064
:107728009e0090008048780022ff07000080fa0041
:10773800000006000600fa00004f780011079800c4
:1077480022079800e5fe07001e4078000004a0000c
:1077580033ff07000040eb0079ff07009e00900010
:107768008048780010c0b30075ff0700ae00900095
:10777800804878000fff07000080fa00000006002c
:107788000800fa002047980021079800320798005f
:10779800d2fe07002e4090000004a00020ff070042
:1077a8000000eb00000f7800110037003e00900049
:1077b8000000e9009e0f5000050032000040eb0079
:1077c8005fff0700ae009000804878000400370093
:1077d80010c0b3005aff0700ae0090008048780040
:1077e8002e0090000000e800200798001e0fe80017
:1077f8003e0090009e007800808f5000ebff39001b
:10780800ecfe07000080fa00000006000400fa0001
:10781800100798001e0090008000eb000001be00d9
:10782800909e2e00010020000fed0700000f780049
:107838001e0fe900f01f20009e007800808f500086
:1078480002003600f01f2000000f78009e0078002c
:10785800a110880017e2a8000080fa0000000600c6
:107868000200fa00c0e42a0070808800003a800014
:107878004500de0061406000004f780040a7a80086
:107888001602a80000000000b0108000610060002f
:107898000000e000fcff3a009e40780061c06000f4
:1078a8000080fb00610060004500dd00023a8000b6
:1078b800f1fd2f008100610001007000003a88008e
:1078c8000e30ef000080fa00000006000200fa0007
:1078d80070e52a0070808800003a80004500de00cc
:1078e80061406000004f780040a7a8001622a80059
:1078f80000000000b0108000620060000000e0009e
:10790800fcff3a009e40780061c060000080fb00e8
:10791800610060004500dd00023a8000f1fd2f00a3
:107928008100610001007000003a88000e30ef000d
